:100000000C9463000C948B000C948B000C948B006C
:100010000C948B000C948B000C948B000C948B0034
:100020000C948B000C948B000C948B000C948B0024
:100030000C948B000C948B000C948B000C948B0014
:100040000C9497030C948B000C94EA060C941C07F8
:100050000C948B000C948B000C948B000C948B00F4
:100060000C948B000C948B0000000008000201002F
:100070000003040700000000000000000102040863
:100080001020408001020408102001020408102002
:10009000040404040404040402020202020203032E
:1000A00003030303000000002300260029000000D2
:1000B0000000250028002B0000000000240027007D
:1000C0002A0076034C0711241FBECFEFD8E0DEBF15
:1000D000CDBF11E0A0E0B1E0E6E0F1E102C00590A3
:1000E0000D92A23AB107D9F722E0A2EAB1E001C02D
:1000F0001D92AF39B207E1F710E0C6ECD0E004C0C2
:100100002297FE010E947D08C23CD107C9F70E94D8
:1001100090070C9481080C94000040ED57E060E0DB
:1001200070E081EB91E00E94C40220E835E240E0FB
:1001300050E062E072E081EB91E00E94DA0261E05F
:1001400081EB91E00E949A02882391F066E071E0D1
:100150008091F3019091F4010E94DD076AE070E064
:1001600080E090E00E94100481EB91E00E94C302C5
:1001700041E060E081EB91E00E9458031092A201FF
:1001800061E0809104010E940D0560E08091020110
:100190000E940D051092A8011092A70160E070E086
:1001A000809104010E94850426E040E855E260E069
:1001B00070E082E092E00C9488066091A701709153
:1001C000A801809104010E9485048091A70190916B
:1001D000A8012091000130910101820F931F90939B
:1001E000A8018093A70164E170E080E090E00C94A6
:1001F00010046091A7017091A801809104010E94F0
:1002000085048091A7019091A8012091000130916F
:100210000101821B930B9093A8018093A70164E1D5
:1002200070E080E090E00C941004CF92DF92EF92A7
:10023000FF920E94E103672B682B692B39F40E941F
:10024000E1036230710581059105C0F181EB91E018
:100250000E9401026093A9017093AA018093AB01EF
:100260009093AC01C090AD01D090AE01E090AF0191
:10027000F090B0016C157D058E059F0540F46093EC
:10028000AD017093AE018093AF019093B001C09027
:10029000AD01D090AE01E090AF01F090B0019B01B4
:1002A000AC012C193D094E095F0969017A013AEF49
:1002B000C316D104E104F10408F045C00E94E10333
:1002C0006B017C01809102010E947C05019729F459
:1002D0008091A201882309F479C08091A20188232A
:1002E000A9F08091A3019091A401A091A501B091E2
:1002F000A601C81AD90AEA0AFB0A40E4C4164FE16B
:10030000D406E104F10410F01092A2018091A20140
:10031000882349F08091A7019091A8018F3A910517
:1003200014F40E94DD008091A201811165C08091CA
:10033000A7019091A80197FD5FC0FF90EF90DF901B
:10034000CF900C94F9006093AD017093AE0180934F
:10035000AF019093B00144EF51E060E070E081EBB9
:1003600091E00E94030261E081EB91E00E949A0219
:10037000882309F161E081EB91E00E941F0268E1AE
:1003800071E08091F3019091F4010E94DD070E94D9
:10039000E103AB01BC012AE030E08091F3019091D0
:1003A000F4010E94440881EB91E00E94850281EBF8
:1003B00091E00E94C30265E070E080E090E00E945E
:1003C000100481EB91E00E948E0278CF6AE070E029
:1003D00080E090E00E94100481E08093A201C0922E
:1003E000A301D092A401E092A501F092A60110927F
:1003F000A8011092A70171CFFF90EF90DF90CF90EE
:1004000008950C94E103CF93DF93EC014E875F874F
:10041000688B798B1A8A1B8A1C8A1D8A4E815F81A0
:10042000688579854A875B876C877D870E94E103B1
:100430006E837F8388879987DF91CF910895BF92DC
:10044000CF92DF92EF92FF920F931F93CF93DF93A0
:100450008C01B62E0E94E1036B017C01E801CE5BAA
:10046000DF4F6AE171E0888199810E94DD074AE0EF
:1004700050E06B2D888199810E94510861E271E002
:10048000888199810E94DD072AE030E0B701A6014A
:10049000888199810E94440863E271E08881998192
:1004A0000E94DD07F80186819781A085B185B7019B
:1004B000A601481B590B6A0B7B0B2AE030E08881B0
:1004C00099810E94440863E271E0888199810E94C9
:1004D000DD07F801468157816085718582859385A6
:1004E000A485B585481B590B6A0B7B0B2AE030E0CD
:1004F00088819981DF91CF911F910F91FF90EF90AB
:10050000DF90CF90BF900C9444088E5B9F4F65E2C4
:1005100071E0FC01808191810C94E307CF93DF931C
:10052000EC010E94E1036E837F8388879987DF91C6
:10053000CF9108950F931F93CF93DF93EC01611137
:1005400016C00E94E1030A811B812C813D81601B42
:10055000710B820B930B623371058105910538F4A1
:1005600063E070E080E090E00E941004EACF0E9417
:10057000E1036A837B838C839D8381E0DF91CF914C
:100580001F910F9108950895FC01EC5BFF4F1082BD
:10059000118212821382FC0112821382148215824C
:1005A000411551056105710521F0CB01BA010C948B
:1005B00010040895FB01BA01A9018E5B9F4FDC0175
:1005C000ED93FC9326E0CF010C9488068E5B9F4F41
:1005D000DC018D919C91DC01ED91FC910680F7810D
:1005E000E02D099508958E5B9F4FDC018D919C91C4
:1005F000DC01ED91FC910480F581E02D09950895D1
:100600001F93CF93DF93EC01162F0E94E1036A83BF
:100610007B838C839D83CE5BDF4F6CE271E08881AE
:1006200099810E94DD074AE050E0612F888199811D
:100630000E94510863E371E0888199810E94DD077F
:1006400062E370E080E090E0DF91CF911F910C9425
:1006500010041F93CF93DF93EC01162F8E8988230C
:1006600011F1CE010E94F302811102C085E61CC087
:10067000CE010E94F3028823C9F3CE010E94E60254
:10068000883689F048F4883569F0833689F7612F18
:10069000CE010E94000307C0813729F0863741F759
:1006A00086E702C01E8A83E6DF91CF911F910895ED
:1006B0000F931F93CF93DF931F92CDB7DEB78C01BB
:1006C000611108C0F801468B0F90DF91CF911F9107
:1006D0000F91089581E0F801868B60E0C80149839D
:1006E0000E94290349818336C1F7ECCF1092B701EC
:1006F0001092B8011092B9011092BA011092BB0188
:100700001092BC011092BD011092BE011092BF0167
:100710001092C0011092C1011092C2011092C30147
:100720001092C4011092C5011092C60108951F9243
:100730000F920FB60F9211242F933F938F939F9395
:10074000AF93BF938091FA019091FB01A091FC01BE
:10075000B091FD013091F90123E0230F2D3720F4F2
:100760000196A11DB11D05C026E8230F0296A11D0B
:10077000B11D2093F9018093FA019093FB01A0939E
:10078000FC01B093FD018091FE019091FF01A091C9
:100790000002B09101020196A11DB11D8093FE01DE
:1007A0009093FF01A0930002B0930102BF91AF911B
:1007B0009F918F913F912F910F900FBE0F901F909F
:1007C00018952FB7F8946091FA017091FB01809110
:1007D000FC019091FD012FBF08953FB7F8948091DF
:1007E000FE019091FF01A0910002B091010226B597
:1007F000A89B05C02F3F19F00196A11DB11D3FBF59
:100800006627782F892F9A2F620F711D811D911DE8
:1008100042E0660F771F881F991F4A95D1F7089508
:100820008F929F92AF92BF92CF92DF92EF92FF9200
:100830006B017C010E94ED034B015C01C114D104EA
:10084000E104F104F1F00E9458080E94ED036819D8
:1008500079098A099B09683E73408105910570F307
:1008600021E0C21AD108E108F10888EE880E83E081
:10087000981EA11CB11CC114D104E104F10429F794
:10088000DDCFFF90EF90DF90CF90BF90AF909F9023
:100890008F900895789484B5826084BD84B581601A
:1008A00084BD85B5826085BD85B5816085BDEEE678
:1008B000F0E0808181608083E1E8F0E01082808157
:1008C00082608083808181608083E0E8F0E08081C5
:1008D00081608083E1EBF0E0808184608083E0EBE5
:1008E000F0E0808181608083EAE7F0E080818460CD
:1008F0008083808182608083808181608083808129
:10090000806880831092C10008951F93CF93DF9376
:10091000182FEB0161E00E940D05209711F460E0B3
:1009200004C0CF3FD10539F461E0812FDF91CF9131
:100930001F910C944605E12FF0E0E859FF4FE49138
:10094000E330F9F048F4E130B9F0E230A1F584B5D4
:10095000806284BDC8BD34C0E730E9F0E83019F1E9
:10096000E43049F580918000806280938000D093CC
:100970008B00C0938A0024C084B5806884BDC7BD45
:100980001FC080918000806880938000D093890090
:10099000C093880015C08091B00080688093B0003B
:1009A000C093B3000DC08091B00080628093B0000E
:1009B000C093B40005C0C038D1050CF0B5CFAFCF9F
:1009C000DF91CF911F910895833081F028F4813019
:1009D00099F08230A1F008958730A9F08830B9F0FD
:1009E0008430D1F4809180008F7D03C0809180009D
:1009F0008F7780938000089584B58F7702C084B587
:100A00008F7D84BD08958091B0008F7703C0809161
:100A1000B0008F7D8093B0000895CF93DF9390E076
:100A2000FC01E458FF4F2491FC01E057FF4F8491F3
:100A3000882349F190E0880F991FFC01E854FF4F8B
:100A4000A591B49182559F4FFC01C591D4919FB758
:100A5000611108C0F8948C91209582238C93888131
:100A600082230AC0623051F4F8948C91322F309571
:100A700083238C938881822B888304C0F8948C9183
:100A8000822B8C939FBFDF91CF9108950F931F937B
:100A9000CF93DF931F92CDB7DEB7282F30E0F90157
:100AA000E859FF4F8491F901E458FF4F1491F9017F
:100AB000E057FF4F04910023C9F0882321F0698398
:100AC0000E94E4046981E02FF0E0EE0FFF1FE25581
:100AD000FF4FA591B4919FB7F8948C91611103C019
:100AE0001095812301C0812B8C939FBF0F90DF91C4
:100AF000CF911F910F910895CF93DF93282F30E06E
:100B0000F901E859FF4F8491F901E458FF4FD4915E
:100B1000F901E057FF4FC491CC2391F081110E945D
:100B2000E404EC2FF0E0EE0FFF1FEC55FF4FA59112
:100B3000B4912C912D2381E090E021F480E002C05B
:100B400080E090E0DF91CF910895FC01818D228DAE
:100B500090E0805C9F4F821B91098F7399270895C5
:100B6000FC01918D828D981731F0828DE80FF11D77
:100B7000858D90E008958FEF9FEF0895FC01918D92
:100B8000828D981761F0828DDF01A80FB11D5D96EF
:100B90008C91928D9F5F9F73928F90E008958FEF5D
:100BA0009FEF089582E497E0892B49F080E090E080
:100BB000892B29F00E94420781110C9400000895AE
:100BC000FC01848DDF01A80FB11DA35ABF4F2C91EA
:100BD000848D90E001968F739927848FA689B789B9
:100BE0002C93A089B1898C9180648C93938D848D92
:100BF000981306C00288F389E02D80818F7D808361
:100C00000895CF93DF93EC01888D8823C9F0EA899A
:100C1000FB89808185FD05C0A889B9898C9186FDF5
:100C20000FC00FB607FCF5CF808185FFF2CFA889F2
:100C3000B9898C9185FFEDCFCE010E94E005E7CF09
:100C4000DF91CF910895CF92DF92FF920F931F9380
:100C5000CF93DF931F92CDB7DEB76C0181E0D60151
:100C600058968C9358975B969C915B975C968C9169
:100C70005C97981307C05096ED91FC915197808135
:100C800085FD2EC0F601038D10E00F5F1F4F0F731F
:100C90001127F02EF601848DF81211C00FB607FC53
:100CA000F9CFD6015096ED91FC915197808185FF47
:100CB000F1CFC60169830E94E0056981EBCF838D86
:100CC000E80FF11DE35AFF4F6083D6015B960C934A
:100CD0005B975296ED91FC915397808180620CC096
:100CE000D6015696ED91FC91579760835096ED9101
:100CF000FC91519780818064808381E090E00F9027
:100D0000DF91CF911F910F91FF90DF90CF900895C9
:100D1000BF92CF92DF92EF92FF92CF93DF93EC01DD
:100D20006A017B01B22EE889F98982E0808341154E
:100D300081EE580761057105A1F060E079E08DE36F
:100D400090E0A70196010E945908215031094109FC
:100D500051095695479537952795211580E1380714
:100D600098F0E889F989108260E874E88EE190E0F3
:100D7000A70196010E9459082150310941095109E2
:100D80005695479537952795EC85FD853083EE85FB
:100D9000FF852083188EEC89FD89B082EA89FB8962
:100DA000808180618083EA89FB898081886080837B
:100DB000EA89FB89808180688083EA89FB89808158
:100DC0008F7D8083DF91CF91FF90EF90DF90CF9068
:100DD000BF9008951F920F920FB60F9211242F9378
:100DE0008F939F93EF93FF93E0911202F091130280
:100DF0008081E0911802F091190282FD12C0908169
:100E000080911B028F5F8F7320911C02821751F01B
:100E1000E0911B02F0E0EE5FFD4F958F80931B0287
:100E200001C08081FF91EF919F918F912F910F9041
:100E30000FBE0F901F9018951F920F920FB60F9232
:100E400011242F933F934F935F936F937F938F93CF
:100E50009F93AF93BF93EF93FF9382E092E00E9442
:100E6000E005FF91EF91BF91AF919F918F917F919D
:100E70006F915F914F913F912F910F900FBE0F9007
:100E80001F90189582E092E00E94A50521E0892B31
:100E900009F420E0822F08951092050210920402B6
:100EA00088EE93E0A0E0B0E0809306029093070202
:100EB000A0930802B093090288E891E0909303029E
:100EC0008093020285EC90E090930F0280930E02D3
:100ED00084EC90E0909311028093100280EC90E0FB
:100EE000909313028093120281EC90E0909315028C
:100EF0008093140282EC90E0909317028093160284
:100F000086EC90E0909319028093180210921B02D5
:100F100010921C0210921D0210921E020895089554
:100F20000E944A040E948F070E948D00C2EDD5E006
:100F30000E9415012097E1F30E94D205F9CFCF92CC
:100F4000DF92EF92FF920F931F93CF93DF937C0179
:100F50006A01EB0100E010E00C151D0571F06991CC
:100F6000D701ED91FC910190F081E02DC701099529
:100F7000892B19F00F5F1F4FEFCFC801DF91CF9181
:100F80001F910F91FF90EF90DF90CF900895611522
:100F9000710581F0DB010D900020E9F7AD014150B2
:100FA0005109461B570BDC01ED91FC910280F38146
:100FB000E02D099480E090E008950C94C70769E360
:100FC00071E00C94C7070F931F93CF93DF93EC014D
:100FD0000E94C7078C01CE010E94DF07800F911F7E
:100FE000DF91CF911F910F9108958F929F92AF92B1
:100FF000BF92DF92EF92FF920F931F93CF93DF93F5
:10100000CDB7DEB7A1970FB6F894DEBF0FBECDBF48
:101010007C01F42FD52ECB0119A2223008F42AE04E
:101020008E010F5D1F4F822E912CA12CB12C6F2FA2
:101030007D2DA50194010E945908F22FD32ECA01DB
:10104000015011096A3014F4E0E301C0E7E3E60F50
:10105000D801EC93232B242B252B49F7B801C7018A
:101060000E94C707A1960FB6F894DEBF0FBECDBF92
:10107000DF91CF911F910F91FF90EF90DF90BF9084
:10108000AF909F908F9008952115310541F4DC01B8
:10109000ED91FC910190F081E02D642F09940C9466
:1010A000F5079A01462F50E060E070E00C94440888
:1010B0000895A1E21A2EAA1BBB1BFD010DC0AA1F99
:1010C000BB1FEE1FFF1FA217B307E407F50720F0B1
:1010D000A21BB30BE40BF50B661F771F881F991F2C
:1010E0001A9469F760957095809590959B01AC0175
:1010F000BD01CF010895EE0FFF1F0590F491E02D83
:061100000994F894FFCFF2
:1011060001000D000B00564D4450565F317C315F97
:10111600564D4450560D0A007C00564D4450455FCE
:10112600003A323A005F564D44504500564D445001
:10113600435F005F564D4450430D0A004572726F7F
:10114600723A20417474656D707420746F207365F3
:1011560074206120726561642D6F6E6C79207661F2
:10116600726961626C65206F7220646174612074BB
:10117600797065206E6F7420737570706F72746508
:10118600640D0A000000000023069F07A505BE05A2
:10119600B00501066E616E00696E66006F766600C8
:0211A6002E0019
:107E0000112484B714BE81FFF0D085E080938100F7
:107E100082E08093C00088E18093C10086E0809377
:107E2000C20080E18093C4008EE0C9D0259A86E02C
:107E300020E33CEF91E0309385002093840096BBD3
:107E4000B09BFECF1D9AA8958150A9F7CC24DD24C4
:107E500088248394B5E0AB2EA1E19A2EF3E0BF2EE7
:107E6000A2D0813461F49FD0082FAFD0023811F036
:107E7000013811F484E001C083E08DD089C08234E0
:107E800011F484E103C0853419F485E0A6D080C0E4
:107E9000853579F488D0E82EFF2485D0082F10E0AE
:107EA000102F00270E291F29000F111F8ED06801E7
:107EB0006FC0863521F484E090D080E0DECF843638
:107EC00009F040C070D06FD0082F6DD080E0C81688
:107ED00080E7D80618F4F601B7BEE895C0E0D1E017
:107EE00062D089930C17E1F7F0E0CF16F0E7DF06D8
:107EF00018F0F601B7BEE89568D007B600FCFDCFD4
:107F0000A601A0E0B1E02C9130E011968C91119780
:107F100090E0982F8827822B932B1296FA010C0160
:107F200087BEE89511244E5F5F4FF1E0A038BF0790
:107F300051F7F601A7BEE89507B600FCFDCF97BE46
:107F4000E89526C08437B1F42ED02DD0F82E2BD052
:107F50003CD0F601EF2C8F010F5F1F4F84911BD097
:107F6000EA94F801C1F70894C11CD11CFA94CF0C13
:107F7000D11C0EC0853739F428D08EE10CD085E9AC
:107F80000AD08FE07ACF813511F488E018D01DD067
:107F900080E101D065CF982F8091C00085FFFCCF94
:107FA0009093C60008958091C00087FFFCCF809118
:107FB000C00084FD01C0A8958091C6000895E0E648
:107FC000F0E098E1908380830895EDDF803219F02E
:107FD00088E0F5DFFFCF84E1DECF1F93182FE3DFCA
:107FE0001150E9F7F2DF1F91089580E0E8DFEE27F6
:047FF000FF270994CA
:027FFE00040479
:0400000300007E007B
:00000001FF