:100000000C9463000C948B000C948B000C948B006C
:100010000C948B000C948B000C948B000C948B0034
:100020000C948B000C948B000C948B000C948B0024
:100030000C948B000C948B000C948B000C948B0014
:100040000C94BB030C948B000C940E070C9440078B
:100050000C948B000C948B000C948B000C948B00F4
:100060000C948B000C948B0000000008000201002F
:100070000003040700000000000000000102040863
:100080001020408001020408102001020408102002
:10009000040404040404040402020202020203032E
:1000A00003030303000000002300260029000000D2
:1000B0000000250028002B0000000000240027007D
:1000C0002A009A03700711241FBECFEFD8E0DEBFCD
:1000D000CDBF11E0A0E0B1E0E0E0F2E102C00590A8
:1000E0000D92A43CB107D9F722E0A4ECB1E001C025
:1000F0001D92A13CB207E1F710E0C6ECD0E004C0CD
:100100002297FE010E94FA08C23CD107C9F70E945B
:10011000B4070C94FE080C94000040ED57E060E03A
:1001200070E083ED91E00E94E80220E835E240E0D3
:1001300050E064E272E083ED91E00E94FE0261E033
:1001400083ED91E00E94BE02882391F066E071E0A9
:1001500080911502909116020E9401086AE070E0F9
:1001600080E090E00E94340483ED91E00E94E70279
:1001700041E060E083ED91E00E947C031092C401B5
:1001800061E0809104010E94310560E080910201EC
:100190000E9431051092CA011092C90160E070E01E
:1001A000809104010E94A90426E040E855E260E045
:1001B00070E084E292E00C94AC066091C901709109
:1001C000CA01809104010E94A9048091C901909103
:1001D000CA012091000130910101820F931F909379
:1001E000CA018093C90164E170E080E090E00C9462
:1001F00034046091C9017091CA01809104010E9488
:10020000A9048091C9019091CA0120910001309107
:100210000101821B930B9093CA018093C90164E191
:1002200070E080E090E00C943404CF92DF92EF9283
:10023000FF920E940504672B682B692B39F40E94FA
:1002400005046230710581059105C0F183ED91E0EF
:100250000E9425026093CB017093CC018093CD0165
:100260009093CE01C090CF01D090D001E090D10109
:10027000F090D2016C157D058E059F0540F46093CA
:10028000CF017093D0018093D1019093D201C0909F
:10029000CF01D090D001E090D101F090D2019B012C
:1002A000AC012C193D094E095F0969017A013AEF49
:1002B000C316D104E104F10408F06CC00E940504E7
:1002C0006B017C01809102010E94A005019729F435
:1002D0008091C401882309F4A0C08091C4018823BF
:1002E000D9F08091C5019091C601A091C701B0914C
:1002F000C801C81AD90AEA0AFB0A40E4C4164FE149
:10030000D406E104F10440F01092C4016AE171E006
:1003100084E292E00E9401088091C401882349F0A0
:100320008091C9019091CA018F3A910514F40E94FD
:10033000DD008091C401811109C08091C9019091B3
:10034000CA011816190614F40E94F9008091C4011C
:1003500081110CC08091C9019091CA01181619062B
:100360002CF060E0809104010E946A056091C9014F
:100370007091CA014AE050E084E292E00E94B9081C
:100380006AE271E084E292E0FF90EF90DF90CF901C
:100390000C9401086093CF017093D0018093D10138
:1003A0009093D20144EF51E060E070E083ED91E082
:1003B0000E94270261E083ED91E00E94BE02882343
:1003C00009F161E083ED91E00E94430268E171E090
:1003D00080911502909116020E9401080E94050466
:1003E000AB01BC012AE030E0809115029091160229
:1003F0000E94C10883ED91E00E94A90283ED91E083
:100400000E94E70265E070E080E090E00E94340422
:1004100083ED91E00E94B20251CF6AE070E080E08B
:1004200090E00E94340481E08093C401C092C50131
:10043000D092C601E092C701F092C8016CE271E06F
:1004400084E292E00E94010848CF0C940504CF9307
:10045000DF93EC014E875F87688B798B1A8A1B8A42
:100460001C8A1D8A4E815F81688579854A875B87F2
:100470006C877D870E9405046E837F8388879987B8
:10048000DF91CF910895BF92CF92DF92EF92FF92CA
:100490000F931F93CF93DF938C01B62E0E94050418
:1004A0006B017C01E801CE5BDF4F6BE371E088817B
:1004B00099810E9401084AE050E06B2D8881998162
:1004C0000E94CE0862E471E0888199810E9401084F
:1004D0002AE030E0B701A601888199810E94C10815
:1004E00064E471E0888199810E940108F8018681A5
:1004F0009781A085B185B701A601481B590B6A0BEE
:100500007B0B2AE030E0888199810E94C10864E475
:1005100071E0888199810E940108F8014681578124
:100520006085718582859385A485B585481B590BA7
:100530006A0B7B0B2AE030E088819981DF91CF91B3
:100540001F910F91FF90EF90DF90CF90BF900C9490
:10055000C1088E5B9F4F66E471E0FC018081918150
:100560000C940E08CF93DF93EC010E9405046E8378
:100570007F8388879987DF91CF9108950F931F9389
:10058000CF93DF93EC01611116C00E9405040A812C
:100590001B812C813D81601B710B820B930B62339D
:1005A00071058105910538F463E070E080E090E02A
:1005B0000E943404EACF0E9405046A837B838C8303
:1005C0009D8381E0DF91CF911F910F910895089550
:1005D000FC01EC5BFF4F1082118212821382FC013E
:1005E000128213821482158241155105610571052D
:1005F00021F0CB01BA010C9434040895FB01BA0137
:10060000A9018E5B9F4FDC01ED93FC9326E0CF01A7
:100610000C94AC068E5B9F4FDC018D919C91DC01AC
:10062000ED91FC910680F781E02D099508958E5B90
:100630009F4FDC018D919C91DC01ED91FC91048038
:10064000F581E02D099508951F93CF93DF93EC0179
:10065000162F0E9405046A837B838C839D83CE5B67
:10066000DF4F6DE471E0888199810E9401084AE0C2
:1006700050E0612F888199810E94CE0864E571E085
:10068000888199810E94010862E370E080E090E037
:10069000DF91CF911F910C9434041F93CF93DF937C
:1006A000EC01162F8E89882311F1CE010E941703C9
:1006B000811102C085E61CC0CE010E941703882369
:1006C000C9F3CE010E940A03883689F048F48835C0
:1006D00069F0833689F7612FCE010E94240307C099
:1006E000813729F0863741F786E702C01E8A83E604
:1006F000DF91CF911F9108950F931F93CF93DF93B5
:100700001F92CDB7DEB78C01611108C0F801468B8E
:100710000F90DF91CF911F910F91089581E0F80123
:10072000868B60E0C80149830E944D03498183366E
:10073000C1F7ECCF1092D9011092DA011092DB01CF
:100740001092DC011092DD011092DE011092DF01A7
:100750001092E0011092E1011092E2011092E30187
:100760001092E4011092E5011092E6011092E70167
:100770001092E80108951F920F920FB60F92112464
:100780002F933F938F939F93AF93BF9380911C02BE
:1007900090911D02A0911E02B0911F0230911B0288
:1007A00023E0230F2D3720F40196A11DB11D05C0B4
:1007B00026E8230F0296A11DB11D20931B028093F2
:1007C0001C0290931D02A0931E02B0931F02809101
:1007D000200290912102A0912202B0912302019661
:1007E000A11DB11D8093200290932102A0932202AB
:1007F000B0932302BF91AF919F918F913F912F9121
:100800000F900FBE0F901F9018952FB7F89460911E
:100810001C0270911D0280911E0290911F022FBF39
:1008200008953FB7F8948091200290912102A09101
:100830002202B091230226B5A89B05C02F3F19F0D4
:100840000196A11DB11D3FBF6627782F892F9A2FD2
:10085000620F711D811D911D42E0660F771F881F79
:10086000991F4A95D1F708958F929F92AF92BF92A8
:10087000CF92DF92EF92FF926B017C010E941104F4
:100880004B015C01C114D104E104F104F1F00E94B8
:10089000D5080E941104681979098A099B09683EE4
:1008A00073408105910570F321E0C21AD108E10877
:1008B000F10888EE880E83E0981EA11CB11CC114BB
:1008C000D104E104F10429F7DDCFFF90EF90DF9030
:1008D000CF90BF90AF909F908F900895789484B5FB
:1008E000826084BD84B5816084BD85B5826085BD2C
:1008F00085B5816085BDEEE6F0E080818160808312
:10090000E1E8F0E0108280818260808380818160F4
:100910008083E0E8F0E0808181608083E1EBF0E0BB
:10092000808184608083E0EBF0E08081816080835F
:10093000EAE7F0E080818460808380818260808348
:100940008081816080838081806880831092C10073
:1009500008951F93CF93DF93182FEB0161E00E945E
:100960003105209711F460E004C0CF3FD10539F480
:1009700061E0812FDF91CF911F910C946A05E12FE7
:10098000F0E0E859FF4FE491E330F9F048F4E1304A
:10099000B9F0E230A1F584B5806284BDC8BD34C031
:1009A000E730E9F0E83019F1E43049F58091800052
:1009B000806280938000D0938B00C0938A0024C013
:1009C00084B5806884BDC7BD1FC0809180008068E9
:1009D00080938000D0938900C093880015C08091D7
:1009E000B00080688093B000C093B3000DC08091C8
:1009F000B00080628093B000C093B40005C0C038DE
:100A0000D1050CF0B5CFAFCFDF91CF911F910895F5
:100A1000833081F028F4813099F08230A1F008957C
:100A20008730A9F08830B9F08430D1F4809180000B
:100A30008F7D03C0809180008F7780938000089520
:100A400084B58F7702C084B58F7D84BD0895809171
:100A5000B0008F7703C08091B0008F7D8093B0008D
:100A60000895CF93DF9390E0FC01E458FF4F249169
:100A7000FC01E057FF4F8491882349F190E0880FF3
:100A8000991FFC01E854FF4FA591B49182559F4FE7
:100A9000FC01C591D4919FB7611108C0F8948C9165
:100AA000209582238C93888182230AC0623051F47E
:100AB000F8948C91322F309583238C938881822BEC
:100AC000888304C0F8948C91822B8C939FBFDF9114
:100AD000CF9108950F931F93CF93DF931F92CDB7BC
:100AE000DEB7282F30E0F901E859FF4F8491F90172
:100AF000E458FF4F1491F901E057FF4F0491002390
:100B0000C9F0882321F069830E9408056981E02FDC
:100B1000F0E0EE0FFF1FE255FF4FA591B4919FB794
:100B2000F8948C91611103C01095812301C0812B31
:100B30008C939FBF0F90DF91CF911F910F910895DC
:100B4000CF93DF93282F30E0F901E859FF4F8491CC
:100B5000F901E458FF4FD491F901E057FF4FC491D8
:100B6000CC2391F081110E940805EC2FF0E0EE0FEC
:100B7000FF1FEC55FF4FA591B4912C912D2381E0DF
:100B800090E021F480E002C080E090E0DF91CF911E
:100B90000895FC01818D228D90E0805C9F4F821B27
:100BA00091098F7399270895FC01918D828D981773
:100BB00031F0828DE80FF11D858D90E008958FEF63
:100BC0009FEF0895FC01918D828D981761F0828DC1
:100BD000DF01A80FB11D5D968C91928D9F5F9F7371
:100BE000928F90E008958FEF9FEF089586E697E04B
:100BF000892B49F080E090E0892B29F00E9466075C
:100C000081110C9400000895FC01848DDF01A80F70
:100C1000B11DA35ABF4F2C91848D90E001968F7324
:100C20009927848FA689B7892C93A089B1898C9143
:100C300080648C93938D848D981306C00288F38909
:100C4000E02D80818F7D80830895CF93DF93EC0129
:100C5000888D8823C9F0EA89FB89808185FD05C0DC
:100C6000A889B9898C9186FD0FC00FB607FCF5CF16
:100C7000808185FFF2CFA889B9898C9185FFEDCF5E
:100C8000CE010E940406E7CFDF91CF910895CF9265
:100C9000DF92FF920F931F93CF93DF931F92CDB7F5
:100CA000DEB76C0181E0D60158968C9358975B961D
:100CB0009C915B975C968C915C97981307C05096BB
:100CC000ED91FC915197808185FD2EC0F601038D39
:100CD00010E00F5F1F4F0F731127F02EF601848D68
:100CE000F81211C00FB607FCF9CFD6015096ED915E
:100CF000FC915197808185FFF1CFC60169830E94E5
:100D000004066981EBCF838DE80FF11DE35AFF4F95
:100D10006083D6015B960C935B975296ED91FC91A4
:100D20005397808180620CC0D6015696ED91FC915C
:100D3000579760835096ED91FC9151978081806424
:100D4000808381E090E00F90DF91CF911F910F9110
:100D5000FF90DF90CF900895BF92CF92DF92EF92F5
:100D6000FF92CF93DF93EC016A017B01B22EE889F9
:100D7000F98982E08083411581EE5807610571058C
:100D8000A1F060E079E08DE390E0A70196010E9478
:100D9000D608215031094109510956954795379593
:100DA0002795211580E1380798F0E889F9891082A4
:100DB00060E874E88EE190E0A70196010E94D608F1
:100DC0002150310941095109569547953795279585
:100DD000EC85FD853083EE85FF852083188EEC89B8
:100DE000FD89B082EA89FB89808180618083EA89FC
:100DF000FB89808188608083EA89FB8980818068A3
:100E00008083EA89FB8980818F7D8083DF91CF9108
:100E1000FF90EF90DF90CF90BF9008951F920F92B8
:100E20000FB60F9211242F938F939F93EF93FF93FD
:100E3000E0913402F09135028081E0913A02F09124
:100E40003B0282FD12C0908180913D028F5F8F73C3
:100E500020913E02821751F0E0913D02F0E0EC5DFE
:100E6000FD4F958F80933D0201C08081FF91EF91EE
:100E70009F918F912F910F900FBE0F901F901895FB
:100E80001F920F920FB60F9211242F933F934F93FF
:100E90005F936F937F938F939F93AF93BF93EF93E2
:100EA000FF9384E292E00E940406FF91EF91BF91CC
:100EB000AF919F918F917F916F915F914F913F91F2
:100EC0002F910F900FBE0F901F90189584E292E023
:100ED0000E94C90521E0892B09F420E0822F0895A2
:100EE000109227021092260288EE93E0A0E0B0E074
:100EF0008093280290932902A0932A02B0932B0298
:100F000089EA91E0909325028093240285EC90E099
:100F1000909331028093300284EC90E090933302FE
:100F20008093320280EC90E09093350280933402FB
:100F300081EC90E0909337028093360282EC90E04F
:100F4000909339028093380286EC90E090933B02B4
:100F500080933A0210923D0210923E0210923F029C
:100F600010924002089508950E946E040E94B307F3
:100F70000E948D00C6EFD5E00E9415012097E1F395
:100F80000E94F605F9CFCF92DF92EF92FF920F9376
:100F90001F93CF93DF937C016A01EB0100E010E027
:100FA0000C151D0571F06991D701ED91FC9101902F
:100FB000F081E02DC7010995892B19F00F5F1F4FB4
:100FC000EFCFC801DF91CF911F910F91FF90EF906C
:100FD000DF90CF9008956115710581F0DB010D90D0
:100FE0000020E9F7AD0141505109461B570BDC01C8
:100FF000ED91FC910280F381E02D099480E090E076
:1010000008950C94EB07DC01ED91FC910190F081C7
:10101000E02D09946AE571E00C94EB070F931F93A0
:10102000CF93DF93EC010E94EB078C01CE010E946D
:101030000A08800F911FDF91CF911F910F910895A2
:101040008F929F92AF92BF92DF92EF92FF920F9397
:101050001F93CF93DF93CDB7DEB7A1970FB6F89468
:10106000DEBF0FBECDBF7C01F42FD52ECB0119A260
:10107000223008F42AE08E010F5D1F4F822E912C42
:10108000A12CB12C6F2F7D2DA50194010E94D608B3
:10109000F22FD32ECA01015011096A3014F4E0E393
:1010A00001C0E7E3E60FD801EC93232B242B252B7B
:1010B00049F7B801C7010E94EB07A1960FB6F89453
:1010C000DEBF0FBECDBFDF91CF911F910F91FF907B
:1010D000EF90DF90BF90AF909F908F900895CF9248
:1010E000DF92EF92FF920F931F93CF93DF93EC0168
:1010F0006A017B012115310579F4E881F9810190BC
:10110000F081E02D642FDF91CF911F910F91FF901F
:10111000EF90DF90CF9009942A303105E9F477FF02
:101120001AC06DE20E9403088C0144275527BA01BA
:101130004C195D096E097F092AE0CE010E94200842
:10114000800F911FDF91CF911F910F91FF90EF9032
:10115000DF90CF9008952AE0B701A601CE01DF917C
:10116000CF911F910F91FF90EF90DF90CF900C9453
:1011700020089A01AB01662757FD6095762F0C94E5
:101180006F082115310541F4DC01ED91FC910190CE
:10119000F081E02D642F09940C9420089A01462FC9
:1011A00050E060E070E00C94C1080895A1E21A2EAE
:1011B000AA1BBB1BFD010DC0AA1FBB1FEE1FFF1FFB
:1011C000A217B307E407F50720F0A21BB30BE40B4B
:1011D000F50B661F771F881F991F1A9469F7609592
:1011E0007095809590959B01AC01BD01CF0108954C
:1011F000EE0FFF1F0590F491E02D0994F894FFCFB6
:10120000010008000900564D4450565F317C315FA3
:10121000564D4450560D0A007C00204C6967687496
:101220004F6E2066616C736520000900204C696771
:1012300068744F6E20547275652000564D445045B9
:101240005F003A323A005F564D44504500564D44D7
:1012500050435F005F564D4450430D0A0045727283
:101260006F723A20417474656D707420746F2073CE
:101270006574206120726561642D6F6E6C792076D3
:1012800061726961626C65206F72206461746120B3
:1012900074797065206E6F7420737570706F7274DE
:1012A00065640D0A00000000004706C307C905E297
:1012B00005D40525066E616E00696E66006F766660
:0412C000002E0000FC
:00000001FF
